{
  "contractName": "Marketplace",
  "abi": [
    {
      "constant": true,
      "inputs": [
        {
          "name": "",
          "type": "address"
        },
        {
          "name": "",
          "type": "uint256"
        }
      ],
      "name": "farmerToBid",
      "outputs": [
        {
          "name": "farmer",
          "type": "address"
        },
        {
          "name": "initialPrice",
          "type": "uint256"
        },
        {
          "name": "buyoutPrice",
          "type": "uint256"
        },
        {
          "name": "coffeeBatchId",
          "type": "uint256"
        },
        {
          "name": "timeLimit",
          "type": "uint256"
        },
        {
          "name": "status",
          "type": "bool"
        }
      ],
      "payable": false,
      "stateMutability": "view",
      "type": "function"
    },
    {
      "constant": false,
      "inputs": [
        {
          "name": "_initialPrice",
          "type": "uint256"
        },
        {
          "name": "_buyoutPrice",
          "type": "uint256"
        },
        {
          "name": "_coffeeBatchId",
          "type": "uint256"
        },
        {
          "name": "_timeLimit",
          "type": "uint256"
        }
      ],
      "name": "createBid",
      "outputs": [],
      "payable": false,
      "stateMutability": "nonpayable",
      "type": "function"
    }
  ],
  "bytecode": "0x608060405234801561001057600080fd5b506103a4806100206000396000f30060806040526004361061004c576000357c0100000000000000000000000000000000000000000000000000000000900463ffffffff1680634aa28be814610051578063962714c31461009c575b600080fd5b34801561005d57600080fd5b5061009a60048036038101908080359060200190929190803590602001909291908035906020019092919080359060200190929190505050610150565b005b3480156100a857600080fd5b506100e7600480360381019080803573ffffffffffffffffffffffffffffffffffffffff169060200190929190803590602001909291905050506102a4565b604051808773ffffffffffffffffffffffffffffffffffffffff1673ffffffffffffffffffffffffffffffffffffffff16815260200186815260200185815260200184815260200183815260200182151515158152602001965050505050505060405180910390f35b610158610329565b60c0604051908101604052803373ffffffffffffffffffffffffffffffffffffffff1681526020018681526020018581526020018481526020018381526020016001151581525090506000803373ffffffffffffffffffffffffffffffffffffffff1673ffffffffffffffffffffffffffffffffffffffff168152602001908152602001600020819080600181540180825580915050906001820390600052602060002090600602016000909192909190915060008201518160000160006101000a81548173ffffffffffffffffffffffffffffffffffffffff021916908373ffffffffffffffffffffffffffffffffffffffff1602179055506020820151816001015560408201518160020155606082015181600301556080820151816004015560a08201518160050160006101000a81548160ff0219169083151502179055505050505050505050565b6000602052816000526040600020818154811015156102bf57fe5b9060005260206000209060060201600091509150508060000160009054906101000a900473ffffffffffffffffffffffffffffffffffffffff16908060010154908060020154908060030154908060040154908060050160009054906101000a900460ff16905086565b60c060405190810160405280600073ffffffffffffffffffffffffffffffffffffffff1681526020016000815260200160008152602001600081526020016000815260200160001515815250905600a165627a7a723058203283aec885afc13edc0cb7cb5c288164c9eab5bcf695fe60901e3b80038b41cb0029",
  "source": "pragma solidity ^0.4.23;\n\ncontract Marketplace{\n    struct Bid {\n        address farmer;\n        uint256 initialPrice;\n        uint256 buyoutPrice;\n        uint coffeeBatchId;\n        uint timeLimit; \n        bool status;\n    }\n    mapping (address => Bid[]) public farmerToBid;\n\n    function createBid(uint256 _initialPrice, uint256 _buyoutPrice, uint _coffeeBatchId, uint _timeLimit) public{\n        Bid memory bid = Bid(msg.sender, _initialPrice, _buyoutPrice, _coffeeBatchId, _timeLimit, true);\n        farmerToBid[msg.sender].push(bid);\n    }\n}",
  "sourcePath": "/Users/crisgarner/Projects/affogato/marketplace/contracts/Marketplace.sol",
  "compiler": {
    "name": "solc",
    "version": "0.4.24+commit.e67f0147.Emscripten.clang"
  },
  "schemaVersion": "2.0.1",
  "updatedAt": "2018-11-07T03:29:01.664Z"
}